:020000040800F2
:10000000780600204D02000855020008570200083B
:10001000590200085B0200085D02000800000000B1
:100020000000000000000000000000005F02000867
:100030006102000800000000630200086502000879
:1000400067020008670200086702000867020008EC
:1000500067020008670200086702000867020008DC
:1000600067020008670200086702000867020008CC
:1000700067020008670200086702000867020008BC
:1000800067020008670200086702000867020008AC
:10009000670200086702000867020008670200089C
:1000A000670200086702000867020008670200088C
:1000B000670200086702000867020008670200087C
:1000C000670200086702000867020008670200086C
:1000D000670200086702000867020008670200085C
:1000E000670200086702000867020008670200084C
:1000F000670200086702000867020008670200083C
:10010000670200086702000867020008670200082B
:10011000670200086702000867020008670200081B
:10012000670200086702000867020008670200080B
:1001300067020008670200086702000867020008FB
:1001400067020008670200086702000867020008EB
:1001500067020008670200086702000867020008DB
:1001600067020008670200086702000867020008CB
:1001700067020008670200086702000867020008BB
:1001800067020008670200086702000867020008AB
:10019000670200086702000867020008670200089B
:1001A00067020008670200086702000800F002F812
:1001B00000F03CF80AA090E8000C82448344AAF1C5
:1001C0000107DA4501D100F031F8AFF2090EBAE8C3
:1001D0000F0013F0010F18BFFB1A43F0010318477B
:1001E0003809000058090000103A24BF78C878C1C7
:1001F000FAD8520724BF30C830C144BF04680C602D
:10020000704700000023002400250026103A28BF74
:1002100078C1FBD8520728BF30C148BF0B60704778
:100220001FB500F074FA1FBD10B510BD00F039FA0B
:100230001146FFF7F5FF00F05CF900F057FA03B440
:10024000FFF7F2FF03BC00F05BFA000009488047AB
:1002500009480047FEE7FEE7FEE7FEE7FEE7FEE7A8
:10026000FEE7FEE7FEE7FEE704480549054A064BC0
:100270007047000097030008AD01000878000020D7
:100280007806002078020020780200200CB50020BB
:10029000019000908148006840F480307F490860F8
:1002A00000BF7E48006800F4003000900198401CB8
:1002B0000190009818B90198B0F5A04FF1D1774896
:1002C000006810F4003F02D00120009001E00020FF
:1002D0000090009801285DD170484030006840F0DF
:1002E00080506E49403108606D48006840F44040DD
:1002F0006B4908606948083000686849083108603F
:100300000846006840F4004008600846006840F471
:10031000A05008606348091F0860081F006840F08B
:100320008070091F086000BF5C48006810F0007F03
:10033000FAD05B48006840F480305949086000BF3B
:100340005748406810F4803FFAD05548006840F4A0
:1003500000305349086000BF5148406810F4003F26
:10036000FAD040F20570504908604C4808300068E7
:1003700020F003004949083108600846006840F051
:100380000200086000BF45480830006800F00C001B
:100390000828F8D10CBD10B54448006840F470003E
:1003A000424908603D48006840F001003B49086050
:1003B00000203A4908310860384800683C49084044
:1003C000364908603B48091D0860081F006820F492
:1003D0008020091F0860002030490C310860FFF7B9
:1003E00055FF4FF0006031498039086010BD70B58D
:1003F00000200022022300240221284D08352D6808
:1004000005F00C0020B1042806D0082834D107E0FC
:10041000294D2A4E356033E0294D284E35602FE0B6
:100420001E4D2D1D2D68C5F380541C4D2D1D2D68AE
:1004300005F03F0154B1224DB5FBF1F5174E361DC5
:100440003668C6F3881605FB06F209E01A4DB5FBBF
:10045000F1F5124E361D3668C6F3881605FB06F216
:100460000E4D2D1D2D68C5F301456D1C6B00B2FBB3
:10047000F3F5124E356003E00F4D104E356000BFAE
:1004800000BF064D08352D68C5F303150D4E705D90
:100490000A4D2D68C540094E356070BD00380240D8
:1004A00000700040085A4008003C024088ED00E01F
:1004B000FFFFF6FE103000240024F40000000020AE
:1004C00040787D010400002010B502460B464FF035
:1004D000FF3108E012F8010B4840C0B2674C54F8F5
:1004E000200080EA11211800A3F10103F2D1C843D2
:1004F00010BD2DE9F0416248D0F820806148804568
:100500007CD15F480068051F29465D48001DFFF744
:10051000DBFF0646A5F1FF404068B042F0D15A48E3
:100520005A4908605A48086058480C30006840F042
:10053000020056490C310860012425E000BF5348F1
:100540000830006800F48030B0F5803FF7D04F48A5
:100550000C30006820F4F8604C490C310860084603
:10056000006840EAC40008600846006840F4803033
:10057000086000BF45480830006800F48030B0F5DE
:10058000803FF7D0601CC4B2082CD7DB3F480C304A
:10059000006840F002003D490C31086008460068E0
:1005A00040F0010008600846006840F400700860F0
:1005B00000240FE000BF35480830006800F48030A8
:1005C000B0F5803FF7D0A4F1FF404068314960505A
:1005D000601CC4B2012000EB9500A042EAD82B4871
:1005E0000C30006820F0010028490C3108600846F2
:1005F000006840F002000860082426E02FE000BFF9
:1006000022480830006800F48030B0F5803FF7D011
:100610001E480C30006820F4F8601C490C3108605A
:100620000846006840EAC40008600846006840F4D4
:100630008030086000BF15480830006800F4803042
:10064000B0F5803FF7D0601CC4B20C2CD7DB0F484C
:100650000C30006840F002000C490C3108604FF487
:1006600080400D4908600B4847680146086880F3E0
:10067000088800BFB8470020BDE8F08118070008CF
:10068000000080807856341223016745043C024004
:10069000AB89EFCD0040008008ED00E07047704767
:1006A0007047754600F028F8AE4605006946534687
:1006B00020F00700854618B020B5FFF7D5FDBDE84E
:1006C00020404FF000064FF000074FF000084FF0B9
:1006D000000B21F00701AC46ACE8C009ACE8C0094A
:1006E000ACE8C009ACE8C0098D4670470446AFF3DA
:1006F00000802046FFF7A3FD00487047140000204B
:1007000001491820ABBEFEE72600020070474FF0FB
:100710004070E1EE100A7047000000009630077745
:100720002C610EEEBA51099919C46D078FF46A70E5
:1007300035A563E9A395649E3288DB0EA4B8DC7905
:100740001EE9D5E088D9D2972B4CB609BD7CB17E85
:10075000072DB8E7911DBF906410B71DF220B06A55
:100760004871B9F3DE41BE847DD4DA1AEBE4DD6D65
:1007700051B5D4F4C785D38356986C13C0A86B6465
:100780007AF962FDECC9658A4F5C0114D96C066385
:10079000633D0FFAF50D088DC8206E3B5E10694C65
:1007A000E44160D5727167A2D1E4033C47D4044BA5
:1007B000FD850DD26BB50AA5FAA8B5356C98B24285
:1007C000D6C9BBDB40F9BCACE36CD832755CDF4505
:1007D000CF0DD6DC593DD1ABAC30D9263A00DE5135
:1007E0008051D7C81661D0BFB5F4B42123C4B35625
:1007F0009995BACF0FA5BDB89EB802280888055FA5
:10080000B2D90CC624E90BB1877C6F2F114C685804
:10081000AB1D61C13D2D66B69041DC760671DB01F2
:10082000BC20D2982A10D5EF8985B1711FB5B606C4
:10083000A5E4BF9F33D4B8E8A2C9077834F9000F04
:100840008EA8099618980EE1BB0D6A7F2D3D6D08A4
:10085000976C6491015C63E6F4516B6B62616C1C94
:10086000D83065854E0062F2ED95066C7BA5011BC4
:10087000C1F4088257C40FF5C6D9B06550E9B71264
:10088000EAB8BE8B7C88B9FCDF1DDD62492DDA1524
:10089000F37CD38C654CD4FB5861B24DCE51B53A44
:1008A0007400BCA3E230BBD441A5DF4AD795D83D44
:1008B0006DC4D1A4FBF4D6D36AE96943FCD96E3484
:1008C000468867ADD0B860DA732D0444E51D033364
:1008D0005F4C0AAAC97C0DDD3C710550AA41022774
:1008E00010100BBE86200CC925B56857B3856F2044
:1008F00009D466B99FE461CE0EF9DE5E98C9D929A4
:100900002298D0B0B4A8D7C7173DB359810DB42EE3
:100910003B5CBDB7AD6CBAC02083B8EDB6B3BF9A2F
:100920000CE2B6039AD2B1743947D5EAAF77D29DBB
:100930001526DB048316DC73120B63E3843B64949B
:100940003E6A6D0DA85A6A7A0BCF0EE49DFF09939B
:1009500027AE000AB19E077D44930FF0D2A308870B
:1009600068F2011EFEC206695D5762F7CB676580BB
:1009700071366C19E7066B6E761BD4FEE02BD389BB
:100980005A7ADA10CC4ADD676FDFB9F9F9EFBE8E1B
:1009900043BEB717D58EB060E8A3D6D67E93D1A15B
:1009A000C4C2D83852F2DF4FF167BBD16757BCA63B
:1009B000DD06B53F4B36B248DA2B0DD84C1B0AAFDB
:1009C000F64A0336607A0441C3EF60DF55DF67A85B
:1009D000EF8E6E3179BE69468CB361CB1A8366BCEB
:1009E000A0D26F2536E2685295770CCC03470BBB3B
:1009F000B91602222F260555BE3BBAC5280BBDB23B
:100A0000925AB42B046AB35CA7FFD7C231CFD0B5DA
:100A10008B9ED92C1DAEDE5BB0C2649B26F263ECCC
:100A20009CA36A750A936D02A906099C3F360EEBDA
:100A30008567077213570005824ABF95147AB8E29A
:100A4000AE2BB17B381BB60C9B8ED2920DBED5E57A
:100A5000B7EFDC7C21DFDB0BD4D2D38642E2D4F1CA
:100A6000F8B3DD686E83DA1FCD16BE815B26B9F65A
:100A7000E177B06F7747B718E65A0888706A0FFFBA
:100A8000CA3B06665C0B0111FF9E658F69AE62F87A
:100A9000D3FF6B6145CF6C1678E20AA0EED20DD77A
:100AA0005483044EC2B30339612667A7F71660D09A
:100AB0004D476949DB776E3E4A6AD1AEDC5AD6D9DA
:100AC000660BDF40F03BD83753AEBCA9C59EBBDEFA
:100AD0007FCFB247E9FFB5301CF2BDBD8AC2BACAAA
:100AE0003093B353A6A3B4240536D0BA9306D7CD1A
:100AF0002957DE54BF67D9232E7A66B3B84A61C43A
:100B0000021B685D942B6F2A37BE0BB4A18E0CC3F9
:100B10001BDF055A8DEF022D380B00080000002066
:100B200014000000E80100084C0B0008140000202D
:100B300064060000040200080095BA0A00000000E4
:0C0B400000000000010203040607080981
:04000005080001AD41
:00000001FF
