:020000040800F2
:10000000B80600204D0200087509000877090008AD
:100010007B0900087F090008830900080000000030
:100020000000000000000000000000008709000838
:1000300089090008000000008B090008650200081B
:1000400067020008670200086702000867020008EC
:1000500067020008670200086702000867020008DC
:1000600067020008670200086702000867020008CC
:1000700067020008670200086702000867020008BC
:1000800067020008670200086702000867020008AC
:10009000670200088D09000867020008670200086F
:1000A000670200086702000867020008670200088C
:1000B000670200086702000867020008670200087C
:1000C000670200086702000867020008670200086C
:1000D000670200086702000867020008670200085C
:1000E000670200086702000867020008670200084C
:1000F000670200086702000867020008670200083C
:10010000670200086702000867020008670200082B
:10011000670200086702000867020008670200081B
:10012000670200086702000867020008670200080B
:1001300067020008670200086702000867020008FB
:1001400067020008670200086702000867020008EB
:1001500067020008670200086702000867020008DB
:1001600067020008670200086702000867020008CB
:1001700067020008670200086702000867020008BB
:1001800067020008670200086702000867020008AB
:10019000670200086702000867020008670200089B
:1001A00067020008670200086702000800F002F812
:1001B00000F03CF80AA090E8000C82448344AAF1C5
:1001C0000107DA4501D100F031F8AFF2090EBAE8C3
:1001D0000F0013F0010F18BFFB1A43F0010318477B
:1001E000E81B0000081C0000103A24BF78C878C142
:1001F000FAD8520724BF30C830C144BF04680C602D
:10020000704700000023002400250026103A28BF74
:1002100078C1FBD8520728BF30C148BF0B60704778
:100220001FB501F0CCFB1FBD10B510BD01F091FB57
:100230001146FFF7F5FF00F00AFB01F0AFFB03B436
:10024000FFF7F2FF03BC01F0B3FB00000948804751
:1002500009480047FEE7FEE7FEE7FEE7FEE7FEE7A8
:10026000FEE7FEE7FEE7FEE704480549054A064BC0
:100270007047000097030008AD010008B800002097
:10028000B8060020B8020020B80200200CB50020FB
:10029000019000908148006840F480307F490860F8
:1002A00000BF7E48006800F4003000900198401CB8
:1002B0000190009818B90198B0F5A04FF1D1774896
:1002C000006810F4003F02D00120009001E00020FF
:1002D0000090009801285DD170484030006840F0DF
:1002E00080506E49403108606D48006840F44040DD
:1002F0006B4908606948083000686849083108603F
:100300000846006840F4004008600846006840F471
:10031000A05008606348091F0860081F006840F08B
:100320008070091F086000BF5C48006810F0007F03
:10033000FAD05B48006840F480305949086000BF3B
:100340005748406810F4803FFAD05548006840F4A0
:1003500000305349086000BF5148406810F4003F26
:10036000FAD040F20570504908604C4808300068E7
:1003700020F003004949083108600846006840F051
:100380000200086000BF45480830006800F00C001B
:100390000828F8D10CBD10B54448006840F470003E
:1003A000424908603D48006840F001003B49086050
:1003B00000203A4908310860384800683C49084044
:1003C000364908603B48091D0860081F006820F492
:1003D0008020091F0860002030490C310860FFF7B9
:1003E00055FF4FF0006031498039086010BD70B58D
:1003F00000200022022300240221284D08352D6808
:1004000005F00C0020B1042806D0082834D107E0FC
:10041000294D2A4E356033E0294D284E35602FE0B6
:100420001E4D2D1D2D68C5F380541C4D2D1D2D68AE
:1004300005F03F0154B1224DB5FBF1F5174E361DC5
:100440003668C6F3881605FB06F209E01A4DB5FBBF
:10045000F1F5124E361D3668C6F3881605FB06F216
:100460000E4D2D1D2D68C5F301456D1C6B00B2FBB3
:10047000F3F5124E356003E00F4D104E356000BFAE
:1004800000BF064D08352D68C5F303150D4E705D90
:100490000A4D2D68C540094E356070BD00380240D8
:1004A00000700040085A4008003C024088ED00E01F
:1004B000FFFFF6FE103000240024F40000000020AE
:1004C00040787D010400002010B502460B464FF035
:1004D000FF3108E012F8010B4840C0B2FE4C54F85E
:1004E000200080EA11211800A3F10103F2D1C843D2
:1004F00010BDFA48FA490860FA480860704710B51C
:10050000024600BFF64B08331B6803F48033B3F593
:10051000803FF7D0F24B08331B6813F0010F03D074
:100520000123EF4C08342360ED4B0C331B6843F080
:100530008073EB4C0C34236023461B6843F4007338
:10054000236023461B6843F00203236010461EE02D
:10055000E34B0C331B6823F0F803E14C0C342360AD
:1005600023461B6843EAC003236023461B6843F409
:100570008033236000BFDA4B08331B6813F0010F90
:10058000F9D00123D64C08342360431CD8B2531849
:100590008342DDDCD24B0C331B6823F00203D04CCA
:1005A0000C34236010BD70B5044600BFCC4D083537
:1005B0002D6805F48035B5F5803FF7D0C84D083576
:1005C0002D6815F0010F03D00125C54E08363560A2
:1005D000C34D0C352D6845F08075C14E0C36356025
:1005E000012B04D0022B22D0042B64D141E0BC4D5E
:1005F0000C352D6825F44075B94E0C3635603546FE
:100600002D6845F00105356000200DE0255C0D5496
:1006100000BFB34D08352D6815F0010FF9D0012545
:10062000AF4E08363560401C9042EFD343E0AC4DEE
:100630000C352D6845F48075A94E0C36356035466D
:100640002D6845F00105356000200FE034F81050AA
:1006500021F8105000BFA24D08352D6815F0010F8C
:10066000F9D001259E4E08363560401C9042EDD3EE
:1006700021E09B4D0C352D6845F40075984E0C36E5
:10068000356035462D6845F00105356000200FE0E6
:1006900054F8205041F8205000BF914D08352D6886
:1006A00015F0010FF9D001258D4E08363560401C3C
:1006B0009042EDD300BF00BF894D0C352D6825F069
:1006C0000105874E0C36356070BD02460B46002191
:1006D00004E0091D994201D3002070475058401C86
:1006E000F7D00120F9E70EB5054600F0D1FD012154
:1006F000202000F07AFC8020009001208DF804007A
:1007000000208DF806008DF807008DF80500694679
:10071000754800F0C9F94FF0E020006920F00400AE
:100720004FF0E02108610846006940F001000861CF
:1007300001206E49087025E04FF4BA706C490880BA
:1007400001208870C870084600F08EFE66481030A0
:10075000006810F0800F04D0802063491A310880AF
:1007600003E0802060491831088062484FF0E021A2
:1007700048610020886100BF4FF0E020006910F45C
:10078000803FF9D0594800780028D5D180205649BB
:100790001A310880FFF7ADFE574801685748FFF748
:1007A00094FFC8B154480068B0F5C03F01DC032491
:1007B0000EE051480068B0F5603F01DC042407E01A
:1007C0004D480068B0F5B02F01DC052400E0062498
:1007D00021460220FFF793FE4FF4B9704449088088
:1007E000022088700120C87067214148017100F023
:1007F0003BFE43484FF0E021486119E03A48103091
:10080000006810F0800F04D0802037491A3108802A
:1008100003E0802034491831088000204FF0E021A7
:10082000886100BF4FF0E020006910F4803FF9D0EC
:10083000344800780028E1D0A320029032482918DB
:1008400001231A4602A8FFF7AEFE00F07CF808B5B7
:1008500000250BE0681C85B243F6FF70854205DB7E
:10086000002501210846FFF74AFE03E02648285CE0
:10087000FF28EFD100BF2448284410F8010C009055
:100880009DF80000A72820D12048C4692146FFF721
:100890001BFE06461D482058B04252D1FFF729FEE4
:1008A00006210220FFF72BFE042322461349174896
:1008B000FFF779FEA32000901348291801231A4658
:1008C0006846FFF770FE00F03EF89DF80000A32890
:1008D00034D10A48C4691BE0C819000823016745E0
:1008E000043C0240AB89EFCD00140240140000200C
:1008F00034000020C0E1E400300000200080000847
:10090000A02526002800002000400008000008085C
:100910002146FFF7D9FD064613482058B0420AD1B8
:1009200011481249086047680146086880F3088842
:1009300000BFB84705E02846FFF7D5FE2846FFF779
:10094000D2FE00BFFEE7BFF34F8F0848001D0068CE
:1009500000F4E06006490843001D0449091D0860D1
:10096000BFF34F8F00BFFEE70080000808ED00E0F6
:100970000000FA05704700BFFEE700BFFEE700BFBA
:10098000FEE700BFFEE770477047704710B50120D3
:1009900000F01DFE00F0E7FE10BD000010B504469B
:1009A0009848844208D10121084600F087FB0021C5
:1009B000012000F083FB76E09348844208D10121B6
:1009C000022000F07BFB0021022000F077FB6AE0B0
:1009D0008E48844208D10121042000F06FFB0021E1
:1009E000042000F06BFB5EE08948844208D10121BD
:1009F000082000F063FB0021082000F05FFB52E0BC
:100A00008448844208D10121102000F057FB0021C6
:100A1000102000F053FB46E07F48844208D10121BA
:100A2000202000F04BFB0021202000F047FB3AE0A3
:100A30007A48844208D10121402000F03FFB002188
:100A4000402000F03BFB2EE07548844208D1012194
:100A5000802000F033FB0021802000F02FFB22E0FB
:100A60007048844208D10121801500F027FB002145
:100A7000A01500F023FB16E06B48844208D1012149
:100A8000401500F01BFB0021601500F017FB0AE089
:100A90006648844207D10121001500F00FFB0021B8
:100AA000201500F00BFB10BDF0B50A460021002315
:100AB000002400BF3DE0012505FA01F3156805EAB1
:100AC00003049C4234D105684F000326BE40B54361
:100AD000056015794E00B540066835430560157907
:100AE000012D02D01579022D16D185684F000326FD
:100AF000BE40B543856055794E00B54086683543A4
:100B00008560456801268E40B54345604568967905
:100B10008E40B6B235434560C5684F000326BE40DF
:100B2000B543C560D5794E00B540C6683543C5604C
:100B3000491C1029BFD3F0BD4FF6FF7101600021A1
:100B4000017141718171C171704708B54FF48032F4
:100B50000092009A0A430092009AC261C161009A11
:100B6000C261C2690092C269009208BD02460020BB
:100B700013690B4201D0012000E0002070470146BC
:100B8000086980B270470246002053690B4201D0C9
:100B9000012000E0002070470146486980B270479C
:100BA00001837047418370470AB1018300E04183AC
:100BB00070474161704742694A4042617047F0B5F1
:100BC000002300244D07ED0E02FA05F3CE1000F1CC
:100BD000200555F826504E07F70E0F26BE40B543A8
:100BE000CF1000F1200646F82750CE1000F1200566
:100BF00055F8265045EA0304CE1000F1200545F8CB
:100C00002640F0BD000002400004024000080240FF
:100C1000000C024000100240001402400018024084
:100C2000001C024000200240002402400028024034
:100C3000F648006840F00100F44908600020F349DC
:100C400008310860F1480068F1490840EF49086040
:100C5000F048091D0860F048EC4984310860ED480F
:100C60001038091D0860E948006820F48020E74931
:100C700008600020E5490C310860E4498C310860C7
:100C800070470021E14A921C1170114608707047AC
:100C900010B501460022002300204A11012A02D18A
:100CA000DA4C236808E0022A03D1D84C7034236858
:100CB00002E0D64C7434236801F01F0201249440F2
:100CC0001C4201D0012000E0002010BD38B50020FA
:100CD00000900024002500BF3120FFF7D9FF054612
:100CE0000098401C00900098B0F5A04F01D0002D56
:100CF000F2D03120FFF7CCFF08B1012400E000243E
:100D0000204638BD01460020C04A106820F0F80097
:100D100040EAC10010607047C04908607047002178
:100D2000BA4A703211701170012802D004280AD119
:100D300004E00121B54A7032117005E00521B34A83
:100D40007032117000E000BF00BF7047B449086006
:100D5000704770B5049C41EA82150126C6EB530624
:100D600045EA0645054345EA0465A84E361D35604B
:100D700070BDAA490866704710B5830143EA016354
:100D800043EA0273A14C8434236010BDA3498866F2
:100D9000704710B5830143EA016343EA02739B4C39
:100DA0008834236010BD9D49086770479B49C8641B
:100DB000704702460020954B0833186820F0EC601D
:100DC00042EA01031843914B08331860704702460A
:100DD00000208E4B0833186820F0784042EA010367
:100DE00018438A4B08331860704701460020874A31
:100DF0000832106820F003000843106070478348F1
:100E00000830006800F00C007047014600207F4A5F
:100E10000832106820F0F000084310607047014667
:100E200000207A4A0832106820F4E050084310602D
:100E3000704701460020754A0832106820F460406F
:100E400040EAC10010607047F0B500210022002484
:100E50000225002602236D4F08373F6807F00C017A
:100E600021B1042905D0082937D105E06D4F07606D
:100E700036E06D4F076033E0644F3F1D3F68C7F3B6
:100E80008056624F3F1D3F6807F03F036EB1664FCB
:100E9000B7FBF3F7DFF874C10CF1040CDCF800C009
:100EA000CCF3881C07FB0CF40CE05E4FB7FBF3F7A8
:100EB000DFF858C10CF1040CDCF800C0CCF3881C3E
:100EC00007FB0CF4514F3F1D3F68C7F301477F1CE0
:100ED0007D00B4FBF5F7076002E0524F076000BFEA
:100EE00000BF4A4F08373F6807F0F00109094F4F2C
:100EF0007A5C0768D7404760444F08373F6807F47B
:100F0000E051890A494F7A5C4768D74087603F4F74
:100F100008373F6807F46041490B444F7A5C4768E3
:100F2000D740C760F0BD002100F44072B2F5407FA9
:100F30000AD1364A0832116821F4F8113C4A0240BD
:100F40001143324A08321160304A70321268C0F3DD
:100F50000B031A432D4B70331A60704730494439E4
:100F6000086070472E494039086070473149086071
:100F7000704701460020254A8C32106820F01F007F
:100F80004A1E1043214A8C321060704701460020EF
:100F90001E4A8C32106820F4F8504A1E40EA0220A3
:100FA0001A4A8C321060704701460020174A8C3272
:100FB000106820F44010084310607047014600207C
:100FC000124A8C32106820F44000084310607047C9
:100FD000014600200D4A8C32106820F4403008434E
:100FE0001060704714490860704739B1074A3032C1
:100FF00012680243054B30331A6006E0034A303270
:1010000012688243014B30331A6070470038024047
:10101000FFFFF6EA103000240030002000004742B5
:10102000800E47420024F40040787D011500002026
:10103000FFFCFF0F5C014742E011474229B1934A90
:1010400012680243914B1A6004E0904A126882438E
:101050008E4B1A60704739B18C4A121D12680243D8
:101060008A4B1B1D1A6006E0884A121D12688243D3
:10107000864B1B1D1A60704739B1844A0C321268C6
:101080000243824B0C331A6006E0804A0C3212682D
:1010900082437E4B0C331A60704739B17B4A103261
:1010A00012680243794B10331A6006E0774A103217
:1010B00012688243754B10331A60704739B1734A16
:1010C000243A12680243714B243B1A6006E06F4ACF
:1010D000243A126882436D4B243B1A60704739B141
:1010E0006A4A203A12680243684B203B1A6006E0C5
:1010F000664A203A12688243644B203B1A6070476C
:1011000039B1624A1C3A12680243604B1C3B1A60B8
:1011100006E05E4A1C3A126882435C4B1C3B1A6034
:10112000704739B1594A143A12680243574B143B7D
:101130001A6006E0554A143A12688243534B143B36
:101140001A60704739B1514A103A126802434F4B46
:10115000103B1A6006E04D4A103A126882434B4B2E
:10116000103B1A60704739B1484A1C32126802437A
:10117000464B1C331A6006E0444A1C321268824314
:10118000424B1C331A60704739B1404A2032126812
:1011900002433E4B20331A6006E03C4A203212687C
:1011A00082433A4B20331A60704739B1374A2432B0
:1011B00012680243354B24331A6006E0334A243266
:1011C00012688243314B24331A60704739B12F4A79
:1011D0002C32126802432D4B2C331A6006E02B4A46
:1011E0002C3212688243294B2C331A60704739B174
:1011F000264A303212680243244B30331A6006E02C
:10120000224A303212688243204B30331A607047D2
:10121000012808D11D493C31096841F008011B4AE9
:101220003C32116007E019493C31096821F008019E
:10123000164A3C321160704739B1144A273A127885
:101240000243124B273B1A7006E0104A273A1278E5
:1012500082430E4B273B1A7070470C4840300068A1
:1012600040F0807009494031086070470146002015
:10127000064A283A12680A4201D0012000E0002004
:101280007047024926390870704700003438024020
:101290001CB501210220FFF7A8FEFD48006840F0C0
:1012A0000070FB49086002208DF8040000208DF8D2
:1012B00006004FF44070009001208DF807000220D6
:1012C0008DF805006946F348FFF7EEFB0922114649
:1012D000F048FFF774FC09220821EE48FFF76FFC85
:1012E000ED48006840F02000EB490860152001211E
:1012F000002807DA0A07140EE84A00F00F031B1F44
:10130000D45403E00A07130EE54A135400BFE24821
:101310001038006820F00200DF49103908600846E4
:10132000006840F00100086000BFDB480C3800682E
:1013300010F0010FF9D0D8481038006840F4803020
:10134000D549103908600846006840F04000086040
:101350000846006820F0800008600846006820F019
:10136000200008600846006820F010000860084669
:10137000006820F0080008600846006820F00400BB
:101380000860C5480C30006820F08040C2490C312C
:1013900008600846006820F00040086008460068C1
:1013A00040F01D0008600846006840F0807008604A
:1013B0000846006840F480200860BA48006840F0A1
:1013C0003800B8490860B7480830006820F0380095
:1013D000B44908310860B3481030006840F0380064
:1013E000B04910310860B049B0480160B04900F11F
:1013F00004000160AF4900F104000160AE4900F152
:1014000004000160AD4900F104000160AC4900F145
:1014100004000160AB48006840F03800A94908604A
:10142000A948006820F00100A7490860A7480068A3
:1014300040F01000A5490860A548006820F00100B0
:10144000A349086000BFA348006810F0010FFAD15B
:1014500015200121814042094FF0E02303EB820275
:10146000C2F8001100BF1CBD10B502460023994808
:10147000001D006800F08060B0F1806F01D1002194
:1014800015E09448001D006800F00060B0F1006FA6
:1014900001D101210BE08F48001D006800F0805051
:1014A000B0F1805F01D1022101E0022010BD10885F
:1014B00044058548803800EB01100460824880387C
:1014C00000EB0110406820F00F047F48803800EBEB
:1014D000011044607C48803800EB0110406894782B
:1014E0002043794C803C04EB011460609079040641
:1014F000507944EA0044107944EA0020D47840EA64
:1015000004037148803800EB01108360907A040670
:10151000507A44EA0044107A44EA0020D47940EA40
:1015200004036948803800EB0110C36066488038C6
:1015300000EB0110006840F001046348803800EBC4
:10154000011004600020B1E702466248001D0068F7
:1015500000F08060B0F1806F01D1002115E05D489E
:10156000001D006800F00060B0F1006F01D10121A2
:101570000BE05848001D006800F08050B0F1805F1B
:1015800001D1022101E002207047022000EB42530A
:101590004D48803800EB011003604B48803800EB69
:1015A0000110406820F00F034748803800EB01101D
:1015B00043604548803800EB0110006840F00103AB
:1015C0004148803800EB011003600020DCE73E4911
:1015D000503901EB0011096801F0020102297DD0A8
:1015E0003949503901EB0011896800EB40023A4B50
:1015F00003EB820211713449503901EB0011896803
:101600000A0A00EB400103EB81014A712E4950396F
:1016100001EB001189680A0C00EB400103EB81012A
:101620008A712949503901EB00118968090E00EBD4
:10163000400203EB8202D1712349503901EB0011C2
:10164000C968CAB200EB400103EB81010A721E496E
:10165000503901EB0011C9680A0A00EB400103EBA5
:1016600081014A721849503901EB0011C9680A0C0E
:1016700000EB400103EB81018A721349503901EB01
:101680000011C968090E00EB400203EB820226E05C
:1016900040380240000402401064004018ED00E0B1
:1016A00000E400E004660040C050D050586600409E
:1016B000E050F050204E304E604E704EE010F01072
:1016C000001110111C6600400066004014640040C8
:1016D0000064004004640040400000200BE0D17230
:1016E000904901EB0011496801F00F0100EB400245
:1016F00003EB8202D1708B4901EB0011096840F2C3
:10170000FF7202EA515100EB4002874B23F822108E
:10171000844901EB00114968090A00EB400203EB20
:101720008202917030B18149096821F010017F4A2D
:10173000116005E07D49096821F002017B4A1160D2
:1017400040B17A49091F096841F02001774A121F08
:10175000116007E075490839096841F02001734AB2
:10176000083A1160704710B56F48807B0C2873D21F
:10177000DFE800F0060708090ACE2BCECECECEC396
:10178000C7E0C6E0C5E0C4E00020694908606949D7
:1017900008606548007C08606348407C096841EA4D
:1017A0000020644908606048807C096841EA004084
:1017B000604908605C48C07C096841EA00605D4996
:1017C000086000205C490870A3E05A480068584946
:1017D0000968401A08281CD355480068574A8118E0
:1017E0000423022250481030FEF7DDFE5048006806
:1017F00008304F4908604FF4B97051490880022001
:1018000088700120C87067214D480171FFF72CFED8
:1018100039E04848006846490968401A04281CD045
:1018200044480068424B1B68C01A012303EB900236
:101830003F480068414BC11804233B481030FEF775
:10184000B2FE3C4800683A490968401A38490968BC
:1018500008443749086016E05AE0364800683449C1
:101860000968401A04280ED131480068334A8118AB
:10187000042301222C481030FEF795FE2C48006806
:10188000001D2B4908602B480068294909688842D7
:1018900032D128480068011F2848FEF715FE04468B
:1018A000244800682549084450F8040CA04210D18F
:1018B0004FF4B97022490880022088700120C87056
:1018C00063211F480171FFF7CFFD01201D490870FA
:1018D00012E01D48006840F000401B4908604FF4CA
:1018E000B97017490880022088700120C8706521EE
:1018F00013480171FFF7B8FD0BE04FF4C4701049B5
:10190000088001208870C8700846FFF7ADFD00E030
:1019100000BF00BF0548006840F0100003490860A0
:1019200010BD0000B065004040000020146400407D
:101930002C0000203000002014000020008000084F
:101940003400002028000020103C024070477047FF
:101950007047754600F028F8AE46050069465346C4
:1019600020F00700854618B020B5FEF77DFCBDE8E5
:1019700020404FF000064FF000074FF000084FF0F6
:10198000000B21F00701AC46ACE8C009ACE8C00987
:10199000ACE8C009ACE8C0098D4670470446AFF317
:1019A00000802046FEF74BFC00487047580000209E
:1019B00001491820ABBEFEE72600020070474FF039
:1019C0004070E1EE100A7047000000009630077783
:1019D0002C610EEEBA51099919C46D078FF46A7023
:1019E00035A563E9A395649E3288DB0EA4B8DC7943
:1019F0001EE9D5E088D9D2972B4CB609BD7CB17EC3
:101A0000072DB8E7911DBF906410B71DF220B06A92
:101A10004871B9F3DE41BE847DD4DA1AEBE4DD6DA2
:101A200051B5D4F4C785D38356986C13C0A86B64A2
:101A30007AF962FDECC9658A4F5C0114D96C0663C2
:101A4000633D0FFAF50D088DC8206E3B5E10694CA2
:101A5000E44160D5727167A2D1E4033C47D4044BE2
:101A6000FD850DD26BB50AA5FAA8B5356C98B242C2
:101A7000D6C9BBDB40F9BCACE36CD832755CDF4542
:101A8000CF0DD6DC593DD1ABAC30D9263A00DE5172
:101A90008051D7C81661D0BFB5F4B42123C4B35662
:101AA0009995BACF0FA5BDB89EB802280888055FE2
:101AB000B2D90CC624E90BB1877C6F2F114C685842
:101AC000AB1D61C13D2D66B69041DC760671DB0130
:101AD000BC20D2982A10D5EF8985B1711FB5B60602
:101AE000A5E4BF9F33D4B8E8A2C9077834F9000F42
:101AF0008EA8099618980EE1BB0D6A7F2D3D6D08E2
:101B0000976C6491015C63E6F4516B6B62616C1CD1
:101B1000D83065854E0062F2ED95066C7BA5011B01
:101B2000C1F4088257C40FF5C6D9B06550E9B712A1
:101B3000EAB8BE8B7C88B9FCDF1DDD62492DDA1561
:101B4000F37CD38C654CD4FB5861B24DCE51B53A81
:101B50007400BCA3E230BBD441A5DF4AD795D83D81
:101B60006DC4D1A4FBF4D6D36AE96943FCD96E34C1
:101B7000468867ADD0B860DA732D0444E51D0333A1
:101B80005F4C0AAAC97C0DDD3C710550AA410227B1
:101B900010100BBE86200CC925B56857B3856F2081
:101BA00009D466B99FE461CE0EF9DE5E98C9D929E1
:101BB0002298D0B0B4A8D7C7173DB359810DB42E21
:101BC0003B5CBDB7AD6CBAC02083B8EDB6B3BF9A6D
:101BD0000CE2B6039AD2B1743947D5EAAF77D29DF9
:101BE0001526DB048316DC73120B63E3843B6494D9
:101BF0003E6A6D0DA85A6A7A0BCF0EE49DFF0993D9
:101C000027AE000AB19E077D44930FF0D2A3088748
:101C100068F2011EFEC206695D5762F7CB676580F8
:101C200071366C19E7066B6E761BD4FEE02BD389F8
:101C30005A7ADA10CC4ADD676FDFB9F9F9EFBE8E58
:101C400043BEB717D58EB060E8A3D6D67E93D1A198
:101C5000C4C2D83852F2DF4FF167BBD16757BCA678
:101C6000DD06B53F4B36B248DA2B0DD84C1B0AAF18
:101C7000F64A0336607A0441C3EF60DF55DF67A898
:101C8000EF8E6E3179BE69468CB361CB1A8366BC28
:101C9000A0D26F2536E2685295770CCC03470BBB78
:101CA000B91602222F260555BE3BBAC5280BBDB278
:101CB000925AB42B046AB35CA7FFD7C231CFD0B518
:101CC0008B9ED92C1DAEDE5BB0C2649B26F263EC0A
:101CD0009CA36A750A936D02A906099C3F360EEB18
:101CE0008567077213570005824ABF95147AB8E2D8
:101CF000AE2BB17B381BB60C9B8ED2920DBED5E5B8
:101D0000B7EFDC7C21DFDB0BD4D2D38642E2D4F107
:101D1000F8B3DD686E83DA1FCD16BE815B26B9F697
:101D2000E177B06F7747B718E65A0888706A0FFFF7
:101D3000CA3B06665C0B0111FF9E658F69AE62F8B7
:101D4000D3FF6B6145CF6C1678E20AA0EED20DD7B7
:101D50005483044EC2B30339612667A7F71660D0D7
:101D60004D476949DB776E3E4A6AD1AEDC5AD6D917
:101D7000660BDF40F03BD83753AEBCA9C59EBBDE37
:101D80007FCFB247E9FFB5301CF2BDBD8AC2BACAE7
:101D90003093B353A6A3B4240536D0BA9306D7CD57
:101DA0002957DE54BF67D9232E7A66B3B84A61C477
:101DB000021B685D942B6F2A37BE0BB4A18E0CC337
:101DC0001BDF055A8DEF022DE81D000800000020E2
:101DD00034000000E80100081C1E00083400002048
:101DE00084060000040200080095BA0A0000000002
:101DF00000000000010203040607080900000000BB
:101E000000010203040102030406070809000000A0
:0C1E1000000000000000000000000000C6
:04000005080001AD41
:00000001FF
